{
  "contractName": "Auction",
  "abi": [
    {
      "inputs": [
        {
          "internalType": "address payable",
          "name": "EOA",
          "type": "address"
        }
      ],
      "stateMutability": "nonpayable",
      "type": "constructor"
    },
    {
      "inputs": [],
      "name": "HighestBidder",
      "outputs": [
        {
          "internalType": "address payable",
          "name": "",
          "type": "address"
        }
      ],
      "stateMutability": "view",
      "type": "function",
      "constant": true
    },
    {
      "inputs": [],
      "name": "HighestBindingBid",
      "outputs": [
        {
          "internalType": "uint256",
          "name": "",
          "type": "uint256"
        }
      ],
      "stateMutability": "view",
      "type": "function",
      "constant": true
    },
    {
      "inputs": [],
      "name": "IpfsHash",
      "outputs": [
        {
          "internalType": "string",
          "name": "",
          "type": "string"
        }
      ],
      "stateMutability": "view",
      "type": "function",
      "constant": true
    },
    {
      "inputs": [],
      "name": "auctionState",
      "outputs": [
        {
          "internalType": "enum Auction.State",
          "name": "",
          "type": "uint8"
        }
      ],
      "stateMutability": "view",
      "type": "function",
      "constant": true
    },
    {
      "inputs": [
        {
          "internalType": "address",
          "name": "",
          "type": "address"
        }
      ],
      "name": "bids",
      "outputs": [
        {
          "internalType": "uint256",
          "name": "",
          "type": "uint256"
        }
      ],
      "stateMutability": "view",
      "type": "function",
      "constant": true
    },
    {
      "inputs": [],
      "name": "endBlock",
      "outputs": [
        {
          "internalType": "uint256",
          "name": "",
          "type": "uint256"
        }
      ],
      "stateMutability": "view",
      "type": "function",
      "constant": true
    },
    {
      "inputs": [],
      "name": "owner",
      "outputs": [
        {
          "internalType": "address payable",
          "name": "",
          "type": "address"
        }
      ],
      "stateMutability": "view",
      "type": "function",
      "constant": true
    },
    {
      "inputs": [],
      "name": "ownerFinalized",
      "outputs": [
        {
          "internalType": "bool",
          "name": "",
          "type": "bool"
        }
      ],
      "stateMutability": "view",
      "type": "function",
      "constant": true
    },
    {
      "inputs": [],
      "name": "startBlock",
      "outputs": [
        {
          "internalType": "uint256",
          "name": "",
          "type": "uint256"
        }
      ],
      "stateMutability": "view",
      "type": "function",
      "constant": true
    },
    {
      "inputs": [],
      "name": "getBalance",
      "outputs": [
        {
          "internalType": "uint256",
          "name": "",
          "type": "uint256"
        }
      ],
      "stateMutability": "view",
      "type": "function",
      "constant": true
    },
    {
      "inputs": [],
      "name": "cancelAuction",
      "outputs": [],
      "stateMutability": "nonpayable",
      "type": "function"
    },
    {
      "inputs": [],
      "name": "placeBid",
      "outputs": [],
      "stateMutability": "payable",
      "type": "function",
      "payable": true
    },
    {
      "inputs": [],
      "name": "finalizeAuction",
      "outputs": [],
      "stateMutability": "nonpayable",
      "type": "function"
    }
  ],
  "bytecode": "0x60806040525f60075f6101000a81548160ff02191690831515021790555034801562000029575f80fd5b50604051620014bf380380620014bf83398181016040528101906200004f919062000175565b805f806101000a81548173ffffffffffffffffffffffffffffffffffffffff021916908373ffffffffffffffffffffffffffffffffffffffff160217905550600160045f6101000a81548160ff02191690836003811115620000b657620000b5620001a5565b5b021790555043600281905550619d80600254620000d4919062000208565b60038190555060405180602001604052805f81525060019081620000f991906200049d565b50670de0b6b3a76400006008819055505062000581565b5f80fd5b5f73ffffffffffffffffffffffffffffffffffffffff82169050919050565b5f6200013f8262000114565b9050919050565b620001518162000133565b81146200015c575f80fd5b50565b5f815190506200016f8162000146565b92915050565b5f602082840312156200018d576200018c62000110565b5b5f6200019c848285016200015f565b91505092915050565b7f4e487b71000000000000000000000000000000000000000000000000000000005f52602160045260245ffd5b5f819050919050565b7f4e487b71000000000000000000000000000000000000000000000000000000005f52601160045260245ffd5b5f6200021482620001d2565b91506200022183620001d2565b92508282019050808211156200023c576200023b620001db565b5b92915050565b5f81519050919050565b7f4e487b71000000000000000000000000000000000000000000000000000000005f52604160045260245ffd5b7f4e487b71000000000000000000000000000000000000000000000000000000005f52602260045260245ffd5b5f6002820490506001821680620002be57607f821691505b602082108103620002d457620002d362000279565b5b50919050565b5f819050815f5260205f209050919050565b5f6020601f8301049050919050565b5f82821b905092915050565b5f60088302620003387fffffffffffffffffffffffffffffffffffffffffffffffffffffffffffffffff82620002fb565b620003448683620002fb565b95508019841693508086168417925050509392505050565b5f819050919050565b5f620003856200037f6200037984620001d2565b6200035c565b620001d2565b9050919050565b5f819050919050565b620003a08362000365565b620003b8620003af826200038c565b84845462000307565b825550505050565b5f90565b620003ce620003c0565b620003db81848462000395565b505050565b5b818110156200040257620003f65f82620003c4565b600181019050620003e1565b5050565b601f82111562000451576200041b81620002da565b6200042684620002ec565b8101602085101562000436578190505b6200044e6200044585620002ec565b830182620003e0565b50505b505050565b5f82821c905092915050565b5f620004735f198460080262000456565b1980831691505092915050565b5f6200048d838362000462565b9150826002028217905092915050565b620004a88262000242565b67ffffffffffffffff811115620004c457620004c36200024c565b5b620004d08254620002a6565b620004dd82828562000406565b5f60209050601f83116001811462000513575f8415620004fe578287015190505b6200050a858262000480565b86555062000579565b601f1984166200052386620002da565b5f5b828110156200054c5784890151825560018201915060208501945060208101905062000525565b868310156200056c578489015162000568601f89168262000462565b8355505b6001600288020188555050505b505050505050565b610f30806200058f5f395ff3fe6080604052600436106100c1575f3560e01c80638bf421ee1161007e578063996657af11610058578063996657af1461023d578063b3f91d0014610267578063ecfc7ecc14610291578063f77282ab1461029b576100c1565b80638bf421ee146101d35780638da5cb5b146101fd5780638fa8b79014610227576100c1565b8063083c6323146100c557806312065fe0146100ef57806348cd4cb11461011957806362ea82db146101435780637fb450991461017f5780638b7b097f146101a9575b5f80fd5b3480156100d0575f80fd5b506100d96102b1565b6040516100e69190610bc6565b60405180910390f35b3480156100fa575f80fd5b506101036102b7565b6040516101109190610bc6565b60405180910390f35b348015610124575f80fd5b5061012d610314565b60405161013a9190610bc6565b60405180910390f35b34801561014e575f80fd5b5061016960048036038101906101649190610c3d565b61031a565b6040516101769190610bc6565b60405180910390f35b34801561018a575f80fd5b5061019361032f565b6040516101a09190610cdb565b60405180910390f35b3480156101b4575f80fd5b506101bd610341565b6040516101ca9190610d0e565b60405180910390f35b3480156101de575f80fd5b506101e7610353565b6040516101f49190610db1565b60405180910390f35b348015610208575f80fd5b506102116103df565b60405161021e9190610df1565b60405180910390f35b348015610232575f80fd5b5061023b610402565b005b348015610248575f80fd5b50610251610484565b60405161025e9190610df1565b60405180910390f35b348015610272575f80fd5b5061027b6104aa565b6040516102889190610bc6565b60405180910390f35b6102996104b0565b005b3480156102a6575f80fd5b506102af6107b7565b005b60035481565b5f3373ffffffffffffffffffffffffffffffffffffffff165f8054906101000a900473ffffffffffffffffffffffffffffffffffffffff1673ffffffffffffffffffffffffffffffffffffffff161461030e575f80fd5b47905090565b60025481565b6005602052805f5260405f205f915090505481565b60045f9054906101000a900460ff1681565b60075f9054906101000a900460ff1681565b6001805461036090610e37565b80601f016020809104026020016040519081016040528092919081815260200182805461038c90610e37565b80156103d75780601f106103ae576101008083540402835291602001916103d7565b820191905f5260205f20905b8154815290600101906020018083116103ba57829003601f168201915b505050505081565b5f8054906101000a900473ffffffffffffffffffffffffffffffffffffffff1681565b3373ffffffffffffffffffffffffffffffffffffffff165f8054906101000a900473ffffffffffffffffffffffffffffffffffffffff1673ffffffffffffffffffffffffffffffffffffffff1614610458575f80fd5b600360045f6101000a81548160ff0219169083600381111561047d5761047c610c68565b5b0217905550565b600760019054906101000a900473ffffffffffffffffffffffffffffffffffffffff1681565b60065481565b3373ffffffffffffffffffffffffffffffffffffffff165f8054906101000a900473ffffffffffffffffffffffffffffffffffffffff1673ffffffffffffffffffffffffffffffffffffffff1603610506575f80fd5b600254431015610514575f80fd5b600354431115610522575f80fd5b6001600381111561053657610535610c68565b5b60045f9054906101000a900460ff16600381111561055757610556610c68565b5b14610560575f80fd5b670de0b6b3a7640000341015610574575f80fd5b5f3460055f3373ffffffffffffffffffffffffffffffffffffffff1673ffffffffffffffffffffffffffffffffffffffff1681526020019081526020015f20546105be9190610e94565b905060065481116105cd575f80fd5b8060055f3373ffffffffffffffffffffffffffffffffffffffff1673ffffffffffffffffffffffffffffffffffffffff1681526020019081526020015f208190555060055f600760019054906101000a900473ffffffffffffffffffffffffffffffffffffffff1673ffffffffffffffffffffffffffffffffffffffff1673ffffffffffffffffffffffffffffffffffffffff1681526020019081526020015f205481116106f6576106eb600854826106869190610e94565b60055f600760019054906101000a900473ffffffffffffffffffffffffffffffffffffffff1673ffffffffffffffffffffffffffffffffffffffff1673ffffffffffffffffffffffffffffffffffffffff1681526020019081526020015f2054610b94565b6006819055506107b4565b61076c8160085460055f600760019054906101000a900473ffffffffffffffffffffffffffffffffffffffff1673ffffffffffffffffffffffffffffffffffffffff1673ffffffffffffffffffffffffffffffffffffffff1681526020019081526020015f20546107679190610e94565b610b94565b60068190555033600760016101000a81548173ffffffffffffffffffffffffffffffffffffffff021916908373ffffffffffffffffffffffffffffffffffffffff1602179055505b50565b6003808111156107ca576107c9610c68565b5b60045f9054906101000a900460ff1660038111156107eb576107ea610c68565b5b14806107f8575060035443115b610800575f80fd5b5f8054906101000a900473ffffffffffffffffffffffffffffffffffffffff1673ffffffffffffffffffffffffffffffffffffffff163373ffffffffffffffffffffffffffffffffffffffff16148061089557505f60055f3373ffffffffffffffffffffffffffffffffffffffff1673ffffffffffffffffffffffffffffffffffffffff1681526020019081526020015f2054115b61089d575f80fd5b5f806003808111156108b2576108b1610c68565b5b60045f9054906101000a900460ff1660038111156108d3576108d2610c68565b5b036109205733915060055f3373ffffffffffffffffffffffffffffffffffffffff1673ffffffffffffffffffffffffffffffffffffffff1681526020019081526020015f20549050610af0565b5f8054906101000a900473ffffffffffffffffffffffffffffffffffffffff1673ffffffffffffffffffffffffffffffffffffffff163373ffffffffffffffffffffffffffffffffffffffff1614801561098b57505f151560075f9054906101000a900460ff161515145b156109bc575f8054906101000a900473ffffffffffffffffffffffffffffffffffffffff1691506006549050610aef565b600760019054906101000a900473ffffffffffffffffffffffffffffffffffffffff1673ffffffffffffffffffffffffffffffffffffffff163373ffffffffffffffffffffffffffffffffffffffff1603610aaa57600760019054906101000a900473ffffffffffffffffffffffffffffffffffffffff16915060065460055f600760019054906101000a900473ffffffffffffffffffffffffffffffffffffffff1673ffffffffffffffffffffffffffffffffffffffff1673ffffffffffffffffffffffffffffffffffffffff1681526020019081526020015f2054610aa39190610ec7565b9050610aee565b33915060055f3373ffffffffffffffffffffffffffffffffffffffff1673ffffffffffffffffffffffffffffffffffffffff1681526020019081526020015f205490505b5b5b600160075f6101000a81548160ff0219169083151502179055505f60055f8473ffffffffffffffffffffffffffffffffffffffff1673ffffffffffffffffffffffffffffffffffffffff1681526020019081526020015f20819055508173ffffffffffffffffffffffffffffffffffffffff166108fc8290811502906040515f60405180830381858888f19350505050158015610b8f573d5f803e3d5ffd5b505050565b5f818311610ba457829050610ba8565b8190505b92915050565b5f819050919050565b610bc081610bae565b82525050565b5f602082019050610bd95f830184610bb7565b92915050565b5f80fd5b5f73ffffffffffffffffffffffffffffffffffffffff82169050919050565b5f610c0c82610be3565b9050919050565b610c1c81610c02565b8114610c26575f80fd5b50565b5f81359050610c3781610c13565b92915050565b5f60208284031215610c5257610c51610bdf565b5b5f610c5f84828501610c29565b91505092915050565b7f4e487b71000000000000000000000000000000000000000000000000000000005f52602160045260245ffd5b60048110610ca657610ca5610c68565b5b50565b5f819050610cb682610c95565b919050565b5f610cc582610ca9565b9050919050565b610cd581610cbb565b82525050565b5f602082019050610cee5f830184610ccc565b92915050565b5f8115159050919050565b610d0881610cf4565b82525050565b5f602082019050610d215f830184610cff565b92915050565b5f81519050919050565b5f82825260208201905092915050565b5f5b83811015610d5e578082015181840152602081019050610d43565b5f8484015250505050565b5f601f19601f8301169050919050565b5f610d8382610d27565b610d8d8185610d31565b9350610d9d818560208601610d41565b610da681610d69565b840191505092915050565b5f6020820190508181035f830152610dc98184610d79565b905092915050565b5f610ddb82610be3565b9050919050565b610deb81610dd1565b82525050565b5f602082019050610e045f830184610de2565b92915050565b7f4e487b71000000000000000000000000000000000000000000000000000000005f52602260045260245ffd5b5f6002820490506001821680610e4e57607f821691505b602082108103610e6157610e60610e0a565b5b50919050565b7f4e487b71000000000000000000000000000000000000000000000000000000005f52601160045260245ffd5b5f610e9e82610bae565b9150610ea983610bae565b9250828201905080821115610ec157610ec0610e67565b5b92915050565b5f610ed182610bae565b9150610edc83610bae565b9250828203905081811115610ef457610ef3610e67565b5b9291505056fea264697066735822122048dc89f7b676016f80b029ea6a60e6128a488159a5fa48f4090da4166621177d64736f6c63430008150033",
  "immutableReferences": {},
  "source": "// SPDX-License-Identifier: GPL-3.0\r\n \r\npragma solidity >=0.5.0 <0.9.0;\r\n\r\ncontract AuctionCreator{\r\n\r\nAuction[] public auctions;\r\n\r\nfunction createAuction() public{\r\n Auction  newAuction = new Auction(payable(msg.sender));\r\n auctions.push(newAuction);\r\n \r\n}\r\n\r\n}\r\n\r\ncontract Auction{\r\n\r\naddress payable public owner;\r\n\r\n    string public IpfsHash;     //uniquely identifies the info\r\n    uint public startBlock;    //use block number to calculate time\r\n    uint public endBlock;\r\n    \r\n\r\n//saving the state of aution\r\n//enum variable implicitly converted to an interger variable\r\nenum State{\r\n    Started,\r\n    Running,\r\n    Ended,\r\n    Cancelled\r\n}\r\n\r\nState public auctionState;\r\n\r\nmapping(address=>uint) public bids;\r\n\r\nuint public HighestBindingBid;    //selling price\r\n\r\nbool public ownerFinalized = false;\r\n\r\n///@notice payable here -->receive back all the funds,if aution is cancelled or its outbid\r\naddress payable public HighestBidder; // addr wins the aution pay for product or service\r\n\r\nuint bidIncrement;                           //contract will automatically bid up to given amt in steps of this increment\r\n\r\nconstructor (address payable EOA){\r\n    owner = EOA;            //owner is declared as payable\r\n    auctionState = State.Running;\r\n    startBlock = block.number;              //assigning current block\r\n    endBlock = startBlock + 40320;              //aution must be valid for a week,so in a week 40320 block wil be generated \r\n    IpfsHash =\"\";                           //initalizing with empty string\r\n    bidIncrement = 1000000000000000000;                     //1 ether in wei\r\n}\r\n\r\nfunction getBalance()  onlyOwner public view returns(uint) {\r\n   return address(this).balance;\r\n\r\n}\r\nmodifier onlyOwner (){                     //function modifier same as normal function using keyword modifier instead of func\r\n\r\n require(owner == msg.sender);    \r\n _;                                         //owner calls this func, func wil executed otherwise an exception is thrown\r\n\r\n}\r\n\r\nmodifier notOwner (){                     \r\n require(owner != msg.sender);             //Here not allowing owner to place bid becoz he can increase the price artifically\r\n _;                                         \r\n}\r\n\r\nmodifier afterStart (){                     \r\n require(block.number>=startBlock);             \r\n_;\r\n}\r\n\r\nmodifier beforeEnd (){                     \r\n require(block.number<=endBlock);            \r\n_;\r\n}\r\n\r\nfunction cancelAuction() public onlyOwner {        //\r\n    auctionState = State.Cancelled;\r\n}\r\n\r\n//func is pure,it neither alters the bc nor it reads from the bc\r\nfunction min(uint a , uint b)  pure internal returns(uint){      //Helper function\r\n    if(a<=b){\r\n        return a;\r\n    }\r\n    else{\r\n        return b;\r\n    }\r\n}\r\n\r\n\r\nfunction placeBid()  payable public notOwner afterStart beforeEnd { \r\n\r\n    require(auctionState == State.Running);\r\n   \r\n    require(msg.value>=1000000000000000000);\r\n\r\n//bids[msg.sender] --> value the current user already sent\r\n//msg.value --> the value sent with tis transaction \r\n//currentBid --> local variable\r\n\r\n    uint currentBid = bids[msg.sender] + msg.value;     \r\n \r\nrequire(currentBid > HighestBindingBid); \r\n\r\n   bids[msg.sender] = currentBid;                //updating bids variable for current user\r\n\r\n   //NOw there are 2 possibilities\r\n\r\n   if(currentBid <= bids[HighestBidder]){\r\n//minimum b/w current bid plus bid increment and bids[HighestBidder]\r\n    HighestBindingBid = min(currentBid + bidIncrement,bids[HighestBidder]); //gets error becoz in solidity there is no func that returns the minimum of 2 values,so we using the helper function\r\n   \r\n   }\r\n   else{\r\n    \r\n    HighestBindingBid = min(currentBid ,bids[HighestBidder] + bidIncrement);\r\n\r\n//changing highestBidder bcoz currentBidder become highestBidder\r\n\r\n    HighestBidder = payable(msg.sender);          //current addr converted to payable one\r\n\r\n   }\r\n\r\n}\r\n\r\nfunction finalizeAuction()  public{\r\n\r\n    require(auctionState == State.Cancelled || block.number > endBlock); //logical ops returns true if any of two condition is true\r\n    require(msg.sender == owner || bids[msg.sender]>0);  // either the owner or bidder can finalize the auction\r\n\r\n//finding the addr that wil receive the funds sent in auction\r\n\r\naddress payable recepient;\r\nuint value;\r\n\r\nif (auctionState == State.Cancelled){\r\n    recepient = payable(msg.sender);    //every bidder request and get there own money\r\n    value = bids[msg.sender];           //value the bidder already sent in the auction\r\n}\r\nelse{                                   //auction ended\r\n\r\n if (msg.sender == owner && ownerFinalized == false){\r\n\r\nrecepient = owner;\r\nvalue = HighestBindingBid;\r\n\r\n }\r\n\r\n else{                                //not owner but bidder who request his own funds\r\n\r\nif (msg.sender == HighestBidder){\r\n\r\nrecepient = HighestBidder;\r\nvalue = bids[HighestBidder] - HighestBindingBid;\r\n\r\n}\r\n \r\n else{                               //neither the owner nor the highest bidder\r\n recepient = payable(msg.sender);    \r\n    value = bids[msg.sender];   \r\n\r\n }\r\n\r\n}\r\n\r\n}\r\n\r\n    ownerFinalized = true;  //the owner can finalize the auction and get the highestBindingBid only once\r\n    bids[recepient] = 0; //resetting the bids of recepient to zero\r\n\r\n   recepient.transfer(value);\r\n  \r\n}\r\n\r\n\r\n\r\n}\r\n\r\n\r\n\r\n",
  "sourcePath": "D:\\Decentralized-Auction\\truffle\\contracts\\Auction.sol",
  "compiler": {
    "name": "solc",
    "version": "0.8.21+commit.d9974bed.Emscripten.clang"
  },
  "schemaVersion": "3.4.16",
  "updatedAt": "2024-03-13T11:36:16.515Z",
  "networkType": "ethereum",
  "devdoc": {
    "kind": "dev",
    "methods": {},
    "version": 1
  },
  "userdoc": {
    "kind": "user",
    "methods": {
      "HighestBidder()": {
        "notice": "payable here -->receive back all the funds,if aution is cancelled or its outbid"
      }
    },
    "version": 1
  }
}